:100000000C9449070C9472070C9472070C947207B5
:100010000C9472070C9472070C94AC380C94720711
:100020000C9472070C9472070C9472070C94F823CA
:100030000C9472070C9472070C9472070C9472075C
:100040000C9472070C9472070C9487380C945A38ED
:100050000C9472070C9472070C9472070C9472073C
:100060000C9472070C94720704000400000407004B
:100070000400020000040000000000000004000072
:100080000000040404040400040704040000000049
:100090000004070704000004000202040400040432
:1000A000000404040400000404040002030000022D
:1000B0000400000202000400000400040404040020
:1000C000040400040000040004000000000000001C
:1000D0000001020102C700F42602010001F30D77BE
:1000E0000F03010001C600CB2004040004BC0D7402
:1000F0002305020002C00D441A0600010000003A68
:100100002707020002C7003A2B08020002C00D4B6D
:100110001D09010001C60097200A030003C300F374
:10012000100B020002C100DD200C030003BE005CC6
:10013000320D0001000000F6370E080008B6000A74
:10014000210F060006B000EE1410020002C00DC51B
:100150002811020101EE0DB32612030003AD006B5E
:100160001413040004A900462C14010001C600D198
:100170000F15050005A400E01D16030003A1006192
:100180002117040003C20DFC17180500059C004947
:100190001219010001C6001C291A030002DF0D3FDD
:1001A0002E1B080008940068331C030002DF0DB604
:1001B000341D030002DF0DD02E1E020002C100F428
:1001C000281F0500039100542220020002C00D4C9C
:1001D0001421030002DF0DB61A22040004E80D18F2
:1001E0001A23040004DB0D9A2124030003A100D389
:1001F0001725030002DF0D331926030002DF0D5F10
:10020000132700010000004E38280600068B005E10
:100210002E290001000000F3372A010001C6002842
:100220002A2B040004BC0D94322C030003BE00A64C
:10023000232D00010000003B382E0400038800E35A
:100240001C2F05000583003F2B30040004DB0DAD9F
:100250003531020002C1002B1232030103C3008EAC
:100260002533030003E10D741434030002DF0DD2C3
:100270001A350600068B00241536020002C00D5404
:100280002D37040003D10DD32A38020102C100C862
:1002900026390600067D00AA133A020002C1003288
:1002A000333B010001C60092103C010001C6008CE6
:1002B000323D030003C3009E2F3E0800087500EE88
:1002C0001A3F0500057000FD2A40030002DF0D23E0
:1002D0001941030003A1006110420400036D000CEA
:1002E0001343020002C00D542044010001C60073F4
:1002F0002D450001000000ED0F46020002C00D393F
:1003000028470500056800841D48020002C00DB89A
:100310001149030003C30093124A040004BC0D708A
:10032000134B00010000008D254C000500000078F3
:10033000DAA5196B6FE336F2AFB00616773D24816C
:100340002D59B29DC37E489CF410B4D94DD79BEE75
:100350000187425024DA26A25745298F2BF2DF3B32
:10036000C3E14BB2775BDC2DB0B048CE0C87F39E77
:10037000C9EF93875E1479F2C45B29EA4A4ECE270F
:10038000BB2C3B677FFFD77AFD3D8BCEE66753F6EC
:1003900020AABE1385C4DD0FF7EC522FBF67C159E9
:1003A000109F05D3593C9D05D1E46492D5659956BB
:1003B0003910F97D9216459DA51D4F6A914B96D532
:1003C0007DD5BD7F974DCE83E9095CD97570579275
:1003D000668F0C8E61DF03587AE7796ECE9B5AAA3E
:1003E0001F51BD7FD7B3A62F8AA46F147C3877081E
:1003F000BFF5BC7DB524818147846EB9EC924E6413
:100400008F92565D9B56B2145D622E65A282F76B89
:10041000FE66F08E82A76D22F77D97D7CFD5E43C9C
:10042000C6A7555BB1038E5E8A701E992B6423129A
:10043000FA043E020755A545BD4B4465B9576C4FBC
:10044000CEA3A585D12C1B085A264E0C9185547B32
:10045000BC1DD21A88603EB7C0B9D8892E2D92BA79
:10046000EF46084F69D1735CE77C9BF64597D88DC2
:10047000327D49F2BE4D3B3000C566E0E871506701
:100480005737035AD9E0F2C0BD7B9FCFE78BE5D445
:1004900000B732D17773F391CFED5764BF62FBB5EC
:1004A000B05FBC485FADCE4003EE121164E602F8C7
:1004B00004399256C1D4F0174C06D44D480BF78C32
:1004C000B2E9574134F5118DDE220755F1BA112FEB
:1004D000BC18492E4FBB3491E2BF70C1BE076FE814
:1004E000129498675092C396A87C7E434BB4792EA1
:1004F0008F68237B05237334B42EF6FD583BB0730D
:10050000A09E99B30D30C0316174AB4E3CF1642FA5
:10051000767BF5C259E0C38375EE0A7E68C1CC9E36
:1005200025DD6BC315663CB8C97AC431647D9494EB
:1005300072F7FEDD3F200404E100F759747B10439D
:1005400092199307EA5307D12D5681554F660D47EF
:1005500066C5A3FD16B9FD7CADB26468232C2BF3F0
:10056000646C3673FF06DE34CE8B7099686BCE45B3
:100570006B3E2910286007D51792FB44179668B781
:10058000E76D598383364725EA1F3BA1862E9C746D
:1005900065D6A7ADB58DF62539F06ED6D94DB4BC6C
:1005A0004E949C8C7BE6A8B4280F2B56907BCE1FD4
:1005B0007A30E7BA01B8C82C81CA4ED932E967B699
:1005C00030072D4F21CEB6396FF13EF4200A56B1D7
:1005D00001786E45C70F20D0680910A4CC4BDEEE21
:1005E0007895BD26182E4048C09E8E1DC9BE2EF996
:1005F00041509669D9F81EA0D736240F8336F0EE05
:10060000E215BDD70AB915BB1D6FF115121D040DFA
:100610007EEE2E572901984A3B6E25B43A996C0517
:10062000C46870E98464C8B236A3D07732D9813700
:100630002B36E115915E2A20B0D815ADFB06F500EA
:100640001781AC75D04B24DC988011DA908EDF24B2
:10065000EA281881A1160C98D34808D43032957531
:100660002EB6AF09A8DBD26AB9F22AA63313B0803E
:10067000A71A6D4668A4C6213CEE2505A7B811C788
:1006800004A8D579703D242791F3AA83CB59BDDD09
:10069000C22DCAAF6C4A827B4C8454CFB0F29C0707
:1006A000DE49DFE44ED694B7F7BD774D043225A579
:1006B0008C92E9F17C0DD74E47084A9BBD8B23D124
:1006C000CA028C13EFFF686EA533371D80DD0A8ADE
:1006D000871D20EE79F6E8A5EB60617818A56BCB55
:1006E0004153834B8FEFF7A28AC11FA5AAAF4925BB
:1006F0009E8D10C652899706E020E87FA532429B66
:1007000086182FB6F4A4B925702CCC7D858627B920
:1007100081E06801E115BC2EF7CB1C925BCF8F55B1
:100720002EF68EDACFAD8BD0A08C52AB05B7CA02B5
:10073000FA33038CB1DCE67FD410852F63DF7B5561
:100740003BC0AF008B038352591D9CC27C2A7C8A1C
:100750000BE3FB000A4C1461FC378CCA2EE0FB0053
:10076000463D40550296E4A02C001DAC08A9E22F9E
:100770009A034856D675454B84F5ED461C7F526268
:10078000C0FB40B35EB6C77278EB2CD6B96AA0E165
:100790003C67F74EE3B939EDB00AF3F39F2ECA2058
:1007A0009071AF3883E7840E45D6DBEE396DB98F93
:1007B0005B0A599B6C57D6521C2B030E88469AE84D
:1007C000D7DF11A2E85585F1AD281DAC8650C7834F
:1007D00074102394AA25124C0510E0045666D6EF37
:1007E00082C801A80C84C64B398AD994E5253050BB
:1007F0000790D495C040D42A4EDB304E3E89A08469
:100800008D32448F3DE2004072E6E03ABFC2E04DD7
:10081000DDEAF446CEABD6D648F84B2340255E2E13
:100820000D234B69F40A0F28060153DC3FE6C69EF0
:100830000B046FA66AC11EF1E26A9DDC5EFC1B43DD
:100840003C568B97F79BE4EEE6C3060316F4A177BC
:1008500097F393BBCB10FE636F690FBB6775B88EC0
:100860004EEED6733858FFF471FD63F2C3A7EB9FC9
:10087000519253F5EF6472BBBE07A8B42BF92E0D4D
:1008800083650380775F6EE9B60053D0A7EBF5F57B
:10089000CD2FD7C9979B0F571FBFA0CF07B8B9B9A6
:1008A000FE049BC4056F455AE05D57D393BBAB195B
:1008B0009080D39B8B9F92CB8BFB2B2443576D3E19
:1008C0005F7CDE249BFBDBCDCF70B2B9C693F80D05
:1008D0002B901E8A2255B6AB8E58772BF8A9DE30A6
:1008E0000518B0695CDF5D4E27E7FF599E2C7F0538
:1008F00036D7F80D36A11657B8807E4C2DAE710153
:100900007DE6F2D7B781034365A95AEE59188640B0
:10091000F76492CA683A5FE42A6577058FA03F7F43
:1009200000B634966642491999C0C421D0505AA8DD
:100930001013916BD530A5C22D253C32FC8B022DB6
:10094000F19599EA29A712689D56ACAA3B0626C9DB
:10095000D0AD1944220A3F4C59167BDE0BF8260B0A
:1009600091AC011B879B681660707BC955026A6752
:100970006C5BB70C94F54FB316124F73B5AFB6243A
:10098000D59C80FAB70EA336B4063B6008EAEDB4F6
:1009900043E854B3498D10B9A40696088A86493EA7
:1009A00042BB2AC02BD2C029AF98E9152C3E98C66D
:1009B0009A661BAC495B300CC6DBB66E554C3707EC
:1009C0002D873C233B35C0F82185F7E6ACAB99F287
:1009D000676C59951B9203DF5016646604E026127B
:1009E000948CC8E90C941EAAA88980DB0330642586
:1009F0002D3964326AB6CC61593F71C30DC3B695C7
:100A00000A62736C9B5CDBD6529F7470AE0B397BB1
:100A10003FA642030402646476D85C9A5DEC468D7E
:100A2000776341E4EDEB0224DB8B462386F3210060
:100A3000A8A06FDC9B2455DF066250827854306892
:100A4000DFA62F68A74B23500AF8B75CCA74C719F2
:100A5000342590318CC240FCB742A2354928E1F2DE
:100A6000BEC0A6089031C1321DBB94E1F3278E9A17
:100A7000C071D0D711F6699B2B63D7D03803BA4524
:100A8000F1AB9283C157BB2DEA676AD93F8095A726
:100A90008C9E83EEA57C1F4737FE01D83D1D60E18B
:100AA000E21F88AAA1D44EE5B63AAA9053B71DAA70
:100AB0001867ADBF69EB1D08B304D6537CDB167213
:100AC000237009C2E6E8B8585A7CE2FA5168ACE8EB
:100AD00059700D8A1AD480968C4DDCC6021C48874A
:100AE0003D8BA280949101BDC194822A28876925FB
:100AF000F40D0CEC6236E085A443C5004288B22FA9
:100B0000CD9E710ED0E1C64C22544304C494DFAA9A
:100B10001864A77620A58D76E4AEAED93655AFA37E
:100B200097E184EBB36F5228320054B3172A7C3E0E
:100B30002B792026644BC9555F7D5FC9BEC18CC926
:100B4000C9A95524C53AF94BDA65FBBCDE9114BF3F
:100B5000A3964F8D40A153E8AB47208C1181BA6E0C
:100B60006F5FBA037815F908840C09910E3D18726D
:100B700031F47C92F41BBA810A05ACBA2A20C63D36
:100B80000181F4A130A1CB3E7FA59A3DA64B041A6A
:100B90005B8CBACB73F6118227A4A907CCEA5B1C45
:100BA00030C8EFA89A55535B1B47F52C37A7664C06
:100BB000628F5841842093C9E0581994AD625468FB
:100BC00051A22BD2167307B69647EA03D4175937AA
:100BD0004E8774B825DFC1221552D3C104057313A3
:100BE00024F170B68C2295EAF42256B98E1671A4BF
:100BF000940F8B385EC077F8F6A68AF8066203A7D2
:100C0000E1B46E24FD124F62C4AC323E6A575720E5
:100C1000F5A37DA76B377493646A28AAD57D6A0F04
:100C2000BDF23D85B515DB1A7F0BE14DA0B128C79C
:100C3000FAC3F6AF838105513CD6DD2CBD61F900C6
:100C400023F59A53A64EE835A7182FA98971C5E256
:100C5000D28E922079EA59877AA09A89E09EB12AA9
:100C600055A34354F3F95EAAE9A2EA79BFC5B5C614
:100C7000D01F89BBFD3488DD204A82FBD9B9D2D28E
:100C80001BE30C28EF6B6833778777F85322408F8C
:100C9000DD5C2431EA77C52BADB592676EF4E18156
:100CA000DA190899C3198282C9790261E3DA896481
:100CB000B2005F336DF95FB0B153F4B8A36DFCFFC0
:100CC0006564FDA1919D86FE1047CBDB30D7679907
:100CD0001A9D67A814780148C11F182EB1CF7271F0
:100CE000D70C568E0B60D061FE2511043E86D705C9
:100CF000F908A0A9E858EB7AA05E7F3AE1EB793ECB
:100D00006C15FFC42C96AA238480A6AAD5454CA5B1
:100D1000B274B62CFB52FFC8DF6836B172CDDFA8C3
:100D200033A4511894DCCB6814D7866A38EAEC3DBA
:100D300065269A5E4E5DBB78C83F368AE4E94BBFB4
:100D40000574CE93A5B61F3D3A3EF503836AEB5476
:100D50005D4C7F4CE8FD436C1DF49F0DA1497A9AD0
:100D60009ECD6667D3D3F9EC74B77A88A779BA8D2C
:100D7000276F7F00FC0D8C35490A0000000023001E
:100D8000260029002C001E47004400450080011D5C
:100D9000480044004500200109880080008100804F
:100DA000000A8A008000810020000BB300B000B16F
:100DB0000080031BB400B000B10020030400000059
:100DC00004040404070400000204000204020400F6
:100DD00007040207040000020404020400000404E3
:100DE00007040002040404000404000404010704CE
:100DF0000004020000000000000006000202661766
:100E000004BC0D650A02C00D644002DF0D6340039F
:100E1000C20D624003D10D611F07C50D604003D1B3
:100E20000D5F0B02CC0D5E4003CE0D5D4003D10D76
:100E30005C1C07D40D5B4002DF0D5A1404DB0D5916
:100E40004002DF0D581003E10D571104E40D561157
:100E500004E80D550D02EC0D540B01F30D53400148
:100E6000EE0D521204EF0D510B01F30D501002F470
:100E70000D4F1503F60D004002F90D4E0E02FB0D4D
:100E80004D0901FD0D4C0600000010111213141540
:100E9000222311241FBECFEFD8E0DEBFCDBF14BE8A
:100EA0000FB6F894A89580916000886180936000E7
:100EB000109260000FBE11E0A0E0B1E0E6ECF2E7B6
:100EC00002C005900D92AA32B107D9F722E0AAE23A
:100ED000B1E001C01D92A639B207E1F70E942525B5
:100EE0000C9461390C940000CF93DF93CDB7DEB73B
:100EF0006A970FB6F894DEBF0FBECDBF0E941225D1
:100F00006B017C019E012F5F3F4F1901AE01475FCE
:100F10005F4F5D874C8780912601882309F43DC58A
:100F20000E941225C61AD70AE80AF90AF894809195
:100F30002601882351F08FEF8093260178940000DA
:100F4000F894809126018111F9CF78940E9412259E
:100F5000A7019601260F371F481F591F2A8B3B8B6D
:100F60004C8B5D8B81E08093260180914A01882320
:100F700009F440C010924A018FEF89836BEC70E254
:100F8000C1010E941C108C01892BA1F1D801569639
:100F90008C9182FFF3CF0E941225F894F8013789D3
:100FA0002689422F4B7F468B78949F938F937F9314
:100FB0006F931F923F9321701F922F9389811F92ED
:100FC0008F9349E4C42E4EE0D42EDF92CF920E943C
:100FD00077302DB73EB7245F3F4F0FB6F8943EBF32
:100FE0000FBE2DBF6BEC70E2C1010E941C108C0182
:100FF000892B61F680914B018823F9F010924B0107
:101000008FEF898362E373E3C1010E941C10FC012E
:10101000892B99F0958D868D9813F4CFF894858D52
:10102000968D891709F497C5789462E373E3C1013B
:101030000E941C10FC01892B69F7809147018823CD
:1010400009F449C0109247018FEF8B87DE011B9690
:101050002D0163ED77E1C2010E941C105C01892B18
:10106000D1F1F501818D80FFF4CFF8946480758013
:1010700086809780818D8E7F818F7894808D81305E
:1010800009F4F5C308F4D6C3823009F496C383305B
:1010900001F7CB8419821A82910142E061E0F501E7
:1010A000848995890E94291809811A8110270127AE
:1010B0001027F02FF670EF2E20E030E0B401A301EE
:1010C000C5010E94EC1363ED77E1C2010E941C1080
:1010D0005C01892B31F6809146018823B1F1109291
:1010E00046018FEF8B879E01255F3F4F2901B2E0BC
:1010F000DB2E1DE2E12E08E0F02E6CE474E1C2016B
:101100000E941C108C01892B01F1D80152968C9100
:1011100082FFF3CF80FF82C0C8010E94DB33F80159
:10112000D28AE982FA82910142E060E08485958565
:101130000E942918C8010E946B156CE474E1C20179
:101140000E941C108C01892B01F780914501882396
:1011500009F469C0109245018FEF8B879E01255FCE
:101160003F4F290166246A94ADE17A2E03E261E6DD
:1011700070E1C2010E941C105C01892B09F453C06C
:10118000D50150968C9182FFF2CFF894F5014481FD
:101190005581668177811489108A148A78948085B4
:1011A0009185A285B3856A017B01C81AD90AEA0A2A
:1011B000FB0ACE86DF86E88AF98AD501112389F0F9
:1011C00052968C91F501E80FF11D658A168A178AEF
:1011D0008D5FF501828B8E32D8F41150D50111113B
:1011E000EFCF51968C91882309F484C2813009F4A1
:1011F0006BC3823009F461C4D50152968C9190E0A2
:101200008E970CF4B4CF6B85C5010E948735AECFA5
:101210006B85C5010E9487351150E0CF6B85C801F1
:101220000E94B0156ACF80915101882309F462C0F1
:10123000109251018FEF8B87FE013B962F0112E038
:10124000A12E03E2E02E8AE6F82E94E0B92E20E4E7
:10125000C22E38E0D32E64E57DE2C2010E941C104C
:101260008C01892B09F446C0D80152968C9182FFDB
:10127000F2CF80FF35C1C8010E94DB33F801A28A9A
:10128000E9821A820484F585E02DA10162E0808163
:101290000E942517F982BA82D8011C96ED91FC9123
:1012A0001D97A10162E080810E942517F982CA8200
:1012B000D8011C96ED91FC911D97A10162E08081FF
:1012C0000E942517E982DA82D8011C96ED91FC91E3
:1012D0001D97A10162E080810E942517C8010E942C
:1012E000EF2E64E57DE2C2010E941C108C01892B67
:1012F00009F0BACF809148018823E9F010924801A3
:101300008FEF89830DE01EE064E47AE1C1010E9461
:101310001C10009781F0FC01208D2F3FA9F7F89455
:101320002685211105C3789464E47AE1C1010E9405
:101330001C10009781F7809149018823D9F1109200
:1013400049018FEF898308E01EE064E87DE1C10177
:101350000E941C10009771F1DC011E962C911E97C3
:1013600023FFF3CFF894FC012685277F2687789406
:101370009C01265E3F4F3F932F9350968C9186950C
:10138000869586951F928F9389811F928F931F93C5
:101390000F930E947730EDB7FEB738960FB6F894EA
:1013A000FEBF0FBEEDBF64E87DE1C1010E941C10CD
:1013B000009791F680914E01882309F446C010925F
:1013C0004E018FEF89830EEF1DE066EA73E2C101E3
:1013D0000E941C10FC01892BC1F1848D80FFF5CF88
:1013E000F89494812581368147815489658976896D
:1013F000A789B08DF18CE28CD38C848D8E7F848F05
:101400007894DF92EF92FF92BF93AF937F936F93A5
:101410005F934F933F932F939F9389811F928F9355
:101420001F930F930E9477302DB73EB7205F3F4F39
:101430000FB6F8943EBF0FBE2DBF66EA73E2C1013E
:101440000E941C10FC01892B41F6A8958091720125
:10145000882329F080E4809360001092720110913B
:101460003302112309F472C000912A0100FD12C059
:10147000153008F46BC0B0907301CB2C8BEF8B0D43
:101480008C3308F4B1C2EEE7CE1609F422C4016031
:1014900000932A01412F50E06EE770E083E791E06E
:1014A0000E943239009739F00E7F00932A0183574A
:1014B000914011E0180F01FD0CC0902F92609093A5
:1014C0002A018AE293E09F938F930E9477300F90D6
:1014D0000F90B12EDD24DA9480E0EB2CF12C1DC0AE
:1014E0006B85C8010E940E2FB6CE90E0402F50E0D1
:1014F000481B590BB701680F791F6D587E4F8D58E7
:101500009E4F0E94483910922601802F9FB7F89471
:1015100020913302121761F09FBF10913302012F07
:101520000B1919F79FB7F894209133021213F4CFD7
:10153000009333029FBFF1E0DF1208C08AE293E01C
:101540009F938F930E9477300F900F900E941225E7
:101550006B017C012A893B894C895D89621B730B75
:10156000840B950B8090330190903401A09035014D
:10157000B09036013FEF831A930AA30AB30A809210
:10158000330190923401A0923501B092360140901F
:101590002F01509030016090310170903201460E61
:1015A000571E681E791E40922F01509230016092A2
:1015B0003101709232016115710541E08407910596
:1015C00008F0F0C19B01AC010E94B738DC01CB01EF
:1015D00081509F4FAF4FBF4F892F9A2FAB2FBB2703
:1015E00040912B0150912C0160912D0170912E01A1
:1015F000840F951FA61FB71F84179507A607B70767
:1016000018F48FEF9FEFDC0180932B0190932C0156
:10161000A0932D01B0932E0140916E0150916F0166
:1016200060917001709171015C546B437B4F2F2D61
:10163000C416D506E606270B27FD6DCCBF93AF93E6
:101640009F938F937F926F925F924F92BF92AF92D0
:101650009F928F9281E79EE09F938F930E947730B5
:101660006DB77EB7625F7F4F0FB6F8947EBF0FBE37
:101670006DBF80916E0190916F01A0917001B0914A
:101680007101C816D906EA06FB0698F480916A0132
:1016900090916B01A0916C01B0916D010196A11D1B
:1016A000B11D80936A0190936B01A0936C01B0937C
:1016B0006D01C0926E01D0926F01E0927001F092C4
:1016C000710110922B0110922C0110922D01109299
:1016D0002E0110922F0110923001109231011092C0
:1016E00032011092330110923401109235011092A0
:1016F000360111CC82E389831A820E9412256B0184
:101700007C01910142E061E0F501848595850E94AC
:1017100029180E941225DC01CB018C199D09AE0904
:10172000BF0981329340A105B10508F0F3C099814A
:1017300097FD2AC12E853F8548895989C21AD30A47
:10174000E40AF50AD50153968C918823C1F02FEF56
:10175000280F41E050E002C0440F551F2A95E2F7E0
:10176000052E000C660B770BC40ED51EE61EF71E69
:1017700004C0F694E794D794C7948A95D2F7BFEF44
:10178000CB16D104E104F10408F05CC12A8130E0F9
:10179000220F331F892F90E0982F8827990F822BD3
:1017A000932BF5012289E20FF11DC58A868B978B59
:1017B0002D5FD50152962C931FCDCB8481E0898378
:1017C0001A821B821C82910143E061E08489958921
:1017D0000E94291869817A818B819C810E94C73877
:1017E000BB27A92F982F872F9C01AD014427552790
:1017F0002E873F87488B598B37E039831A829101B6
:1018000042E061E0D50154968D919C9155970E94DC
:1018100029188A81982F9C7F8E858170E92EE82A6D
:101820000E851F8528893989B401A301C5010E944D
:10183000EC130FCCCB8419821A821B821C8291017B
:1018400044E061E0848995890E94291869817A8140
:101850008B819C810E94C738B62FB770EB2E8B010D
:101860009C01B401A301C5010E94EC13F2CBCB840F
:10187000CE863CE0D32ED9821A821B821C82910133
:1018800044E061E0848995890E94291869817A8100
:101890008B819C810E94C7386B017C01BFE0B983BA
:1018A0001A82910142E061E0F501848995890E94E4
:1018B0002918970186013327CE84EA80B401A30159
:1018C000C5010E94EC13C5CB8FE789838EEF8A8315
:1018D0000E9412256E8B7F8B888F998F910142E039
:1018E00060E0F501848595850E9429180E941225E3
:1018F0006B017C01DC01CB012E893F89488D598D1C
:10190000821B930BA40BB50B81329340A105B1054B
:1019100008F4A5C0D50152968C91F501E80FF11D90
:10192000658A92E0968B178A8D5FF501828B64CC75
:10193000FC01318D308F7894AC01415F5F4F5F9334
:101940004F931F922F9387891F928F9389811F92A4
:101950008F931F930F930E947730EDB7FEB73A969F
:101960000FB6F894FEBF0FBEEDBFCECC2C853D85E3
:10197000E217F30709F0E0C0809590E02A8530E097
:101980008217930709F408C1D50152968C91F5018D
:10199000E80FF11D658A93E0C5CFCA8ADB8AEC8A1D
:1019A000FD8AE0CA6115710550E18507910508F0CF
:1019B00028CE8B019C0101501F4F2F4F3F4F5527C1
:1019C000432F322F212F0E94B738DC01CB014091E9
:1019D0002B0150912C0160912D0170912E01840FEB
:1019E000951FA61FB71F08CED09074018D2D807F44
:1019F000803109F048CD1B1508F4A8CD8B2D90E05F
:101A0000FC01EE58FE4F20812E3709F03CCDAC0191
:101A100040595E4F4A01FC01EF58FE4F9081DA01B8
:101A20008C91292F30E07901F82A6DEF6B0D83E757
:101A300091E00E942825E816F90609F44CC1C090EF
:101A4000730121CDF5018289E80FF11D658A91E0CE
:101A5000968B178A8D5FD50152968C93CDCB80ECF7
:101A600089831A82910142E061E0D5011C968D9133
:101A70009C911D970E94291849812A81942F9227B1
:101A8000892F82958F709827892F8695869589272B
:101A9000982F9695892780FD93C046FFA1C0F50138
:101AA0008289E80FF11D658A75E0C72EC68A178AFC
:101AB0008D5FD50152968C939FCBD5011C96ED91ED
:101AC000FC911D9714818280938040E0B401812FA6
:101AD0000E94A9170E9412256B017C01B0E1CB0E78
:101AE000D11CE11CF11C0E9412252F2DC616D70611
:101AF000E806290B27FFF7CFF89441E0B401812FC6
:101B00000E94A9170E9412256B017C017894F101B3
:101B10002AE011922A95E9F734E839830A83910182
:101B20004AE061E0D5011C968D919C911D970E9421
:101B30002918FE01339685E09191892728E030E04D
:101B400005C0880F2150310909F410CF87FFF9CF64
:101B5000880F8725F7CF5489658990892189328933
:101B600043898F5F858F78946F935F934F933F93F3
:101B70002F939F9389811F928F9344E45EE05F933C
:101B80004F930E9477308DB79EB70A960FB6F894A0
:101B90009EBF0FBE8DBF36CA898584FF18C08B815A
:101BA00087FD65C0D50152968C91F501E80FF11DB6
:101BB000658AB4E0B68B178A8D5FF501828B1CCBEA
:101BC000F5018289E80FF11D658A93E041CFD501C7
:101BD00052968C91F501E80FF11D658AB5E0EACFC8
:101BE0006E857F8588899989C61AD70AE80AF90A15
:101BF000D50153963C913323C9F08FEF830FE1E079
:101C0000F0E002C0EE0FFF1F8A95E2F7CF01092E28
:101C1000000CAA0BBB0BC80ED91EEA1EFB1E04C08B
:101C2000F694E794D794C7943A95D2F7FFEFCF167E
:101C3000D104E104F10408F043C0842F90E0AC012A
:101C4000542F4427550F550FF4E02F9FC001112446
:101C5000842B952BD50152962C91F501E20FF11DA5
:101C6000C58A868B978B2D5FF501228BC5CA2E8581
:101C70003F8548895989C21AD30AE40AF50A31E531
:101C8000C31635E5D306E104F104D0F42C8130E02D
:101C9000220F331F90E0982F8827990F822B932BC8
:101CA000D50152963C91F501E30FF11D2F81269548
:101CB0002F73258B868B978B3D5FF501328B9CCAEA
:101CC000D50152968C91F501E80FF11D658A91E0DE
:101CD00029CE11E0FECB802F8D7F80932A01809149
:101CE0000801D812FFC081E08D0D8F708061809354
:101CF0000801B5E78B16B1E09B0609F008F4BEC0F9
:101D0000E5E7F1E0BA8ECDB6DEB68F010F5F1F4F6B
:101D10002081222309F4E8C0E9E2F3E08491281746
:101D200008F0E2C030E0220F331F220F331F220FD2
:101D3000331FF901E653FF4FE491EDB6FEB644E0E0
:101D4000E49FE018F10811240FB6F894FEBE0FBE10
:101D5000EDBE8DB79EB70196F901E453FF4F449154
:101D6000F901E353FF4F65917491FB01640F711DFD
:101D7000AC01DF86CE869F8B8E8BE617F70709F4C2
:101D800082C08016910608F46EC0A491A53028F197
:101D9000A73009F068C02801BFEF4B1A5B0AD801D1
:101DA000AC9082010A0D111D8016910608F45BC0EB
:101DB000B12CC12CD12CDA01AD92BD92CD92DC9226
:101DC0001397612C712C14964D925D926D927C92BA
:101DD0001797485F5F4F3196D0CF7A0184E0E80EC5
:101DE000F11C68019FEFC91AD90AD8011C91912FE3
:101DF0009F77492E512C612C712C012F00760036D3
:101E0000A9F117FF3EC086010F5F1F4FD801119740
:101E10008C91440C551C661C771C440C551C661C8C
:101E2000771C440C551C661C771C440C551C661C06
:101E3000771C440C551C661C771C440C551C661CF6
:101E4000771C440C551C661C771C982F9F77492AD9
:101E500087FDDACFDA014D925D926D927C921397F5
:101E6000A70131968ACF87E00E94EC37B0EE4B2A6B
:101E700055245A94652C762CC4CFBA8CDD24D39487
:101E80002BCB8601E7CFCE84DF848E899F8940915A
:101E90002701442331F0F901E553FF4FE491E0FFBE
:101EA00011C021533F4FF90125913491F901099552
:101EB0000FB6F894DEBE0FBECDBE08151905E8F6C4
:101EC000F80121CF809128011F928F93E0E8FEE076
:101ED000FF93EF930E9477300FB6F894DEBE0FBEEB
:101EE000CDBEEBCF1B2DEDCA85E00E94EC370F93E2
:101EF0001F93CF93DF938C0180913F01909140011C
:101F0000892B09F04BC060913E0170E06230710591
:101F10002CF482E080933E0162E070E0E0913A01AF
:101F2000F0913B014DB75EB741505F4F44275A9542
:101F30009F01C0E0D0E0C901860F971F48175907DD
:101F400030F121969C01C115A4E0DA07A1F78E1BA0
:101F50009F0B0E945430D0934001C0933F01909357
:101F60003D0180933C010E949027F801808191817E
:101F7000A281B3818093410190934201A0934301D8
:101F8000B0934401DF91CF911F910F910895209755
:101F900011F0C901DCCF80E10E94EC378DE00E9496
:101FA000EC37CF932091380130913901232B91F4F4
:101FB000FC01C0818C2F90E0880F991F880F991F1A
:101FC0000E9454309093390180933801C0933701B7
:101FD000CF9108958AE00E94EC3780913F01909163
:101FE00040019F938F9321E030912701311101C06F
:101FF00020E01F922F93209144012F9320914301C1
:102000002F93209142012F93209141012F9321E0A2
:10201000892B09F420E01F922F9382E69EE09F9384
:102020008F930E9477308DB79EB70C960FB6F894B9
:102030009EBF0FBE8DBF0895CF93DF93EC019881B3
:1020400040913701A0913801B09139010BC0FD01D9
:1020500084E0989FE00DF11D112420813181261725
:10206000370741F09F5F941790F380E090E0DF9195
:10207000CF910895988382819381DF91CF910895C4
:10208000FC01808982FD19C08460808B109226013A
:1020900081E0809345014481558166817781808507
:1020A0009185A285B385840F951FA61FB71F8483D2
:1020B0009583A683B78381E0089584898F5F848B9D
:1020C000E5CFFF920F931F93CF93DF93EC01F8843A
:1020D00083E08F1508F145E450E061E670E1888106
:1020E0000E9449278C0180E490E1F8019383828368
:1020F0006CE572E38C810E947827F80195878487CC
:10210000FC01858180FF0BC0F801F18ADF91CF913E
:102110001F910F91FF90089582E20E94EC3781E2B7
:102120000E94EC378F929F92AF92BF92EF92FF92F4
:102130000F931F93CF93DF9300D0CDB7DEB77C0111
:102140006CE474E1FC0180810E9478278C0189EBAA
:1021500089831A820E9412254B015C019E012F5F28
:102160003F4F42E061E0F801848595850E9429187F
:102170000E941225F80121892F9320892F932A810B
:102180001F922F9323891F922F9327852F932685A4
:102190002F93DC01CB0188199909AA09BB09BF93C8
:1021A000AF939F938F93BF92AF929F928F92F701BD
:1021B00080811F928F9380E39EE09F938F930E9474
:1021C00077300FB6F894DEBF0FBECDBF0F900F90E3
:1021D000DF91CF911F910F91FF90EF90BF90AF9043
:1021E0009F908F9008954F925F926F927F928F92FF
:1021F0009F92AF92BF92DF92EF92FF920F931F9345
:10220000CF93DF9300D0CDB7DEB77C01FC01D08047
:102210006CE474E18D2D0E9478278C01F701808594
:102220009185A285B385892B8A2B8B2B99F1C801C7
:102230000E94DB33F70184819581A681B781F80183
:1022400084839583A683B783F70180859185A285D2
:10225000B385F80180879187A287B38781E0828B5D
:10226000118A108A17861686138AC8010E942D3497
:102270000F900F90DF91CF911F910F91FF90EF90F2
:10228000DF90BF90AF909F908F907F906F905F9006
:102290004F900895C8010E94DB33F801128A8DE245
:1022A00089831A820E9412254B015C019E012F5FD7
:1022B0003F4F42E060E0F801848595850E9429182F
:1022C0000E9412252B013C0181E2F82E99EBE92EA8
:1022D00003C0FA94FF20C1F0E9821A829E012F5FA9
:1022E0003F4F42E061E0F801848595850E942918FE
:1022F0008A818F7749F0813260F76D2DC8010E9485
:10230000B015FA94F110E8CFF8018389882331F0F1
:102310006D2DC8010E948A15F8018389F801918901
:102320009F9390899F939A811F929F931F928F935F
:1023300087858F9386858F93D301C2018819990968
:10234000AA09BB09BF93AF939F938F93BF92AF929C
:102350009F928F921F92DF9280E39EE09F938F93D4
:102360000E9477300FB6F894DEBF0FBECDBF80CF8E
:102370008F929F92AF92BF92FF920F931F93CF9332
:10238000DF938C0169E472E1FC0180810E9478276F
:10239000EC010E94DB338F8D98A1892B09F058C086
:1023A000F80104811BA1FF24F394002339F16C8907
:1023B0007D898E894F2D0E94A91721E001111CC033
:1023C00014FB882780F991E08927281741F08F892D
:1023D000988DA98DBA8D892B8A2B8B2B89F410713E
:1023E0001F291BA3DF91CF911F910F91FF90BF90E9
:1023F000AF909F908F90089520E0E2CFF12CD7CF3F
:102400000E9412258F88988CA98CBA8CDC01CB0194
:10241000880D991DAA1DBB1D888B998BAA8BBB8B20
:102420008C839D83AE83BF838BEA95E29B838A83F3
:10243000107114601F291BA3CE01DF91CF911F9152
:102440000F91FF90BF90AF909F908F900C942D3480
:1024500082E10E94EC37CF93DF93EC0169E472E1F3
:1024600088810E947827F894FC01278D30A1232BC6
:1024700069F44C815D816E817F81FC01438F548FB3
:10248000658F768F7894DF91CF91089584E10E94D3
:10249000EC37CF92DF92EF92CF93DF93EC0161E0C4
:1024A00088859985AA85BB85892B8A2B8B2B09F476
:1024B00060E08C810E94C4236B01E82E44E250E06E
:1024C00069E472E188810E944927FC01C48AD58AA7
:1024D000E68A21E0488559856A857B85452B462B10
:1024E000472B09F420E04C855D856E857F85452B63
:1024F000462B472BB1F430E0232BFC0123A3488962
:1025000059896A897B89478B508F618F728F6AE006
:1025100070E04F96DF91CF91EF90DF90CF900C94C9
:10252000DA2730E1E9CFCF92DF92EF92FF920F935B
:102530001F93CF93DF938C0169E472E1DC018C91EE
:102540000E947827EC010E94F427FC01D801149620
:10255000CD90DD90ED90FC901797C282D382E482FB
:10256000F58218964D915D916D917C911B974683F4
:10257000578360877187F894118210828F8D98A19C
:10258000892B81F0A9A1BAA1ED93FC93FAA3E9A349
:102590007894DF91CF911F910F91FF90EF90DF9092
:1025A000CF900895FAA3E9A3F8A3EF8F8BA182FD42
:1025B00025C0C88AD98AEA8AFB8A982F94609BA38F
:1025C00081FD10C0CE010E94DB33CC82DD82EE8221
:1025D000FF828BEA95E29B838A83CE010E942D3491
:1025E0007894D7CF4C815D816E817F81872F4C1588
:1025F0005D056E058F0987FFE5CFF2CF48895989C0
:102600006A897B89972F4C155D056E059F0997FF99
:10261000D0CF83E10E94EC37AF92BF92CF92DF928E
:10262000EF92FF920F931F93CF93DF93CDB7DEB757
:102630007C01ADB6BEB6FC01C08060E773E18C2DB5
:102640000E947827F701648140855185D4842DB795
:102650003EB72D1931090FB6F8943EBF0FBE2DBFFE
:10266000EDB7FEB731967F018F012D2DFC018081E2
:102670000E949B16FF92EF921F92DF921F92CF92C1
:1026800085E39EE09F938F930E9477302DB73EB7EE
:10269000285F3F4F0FB6F8943EBF0FBE2DBF0FB659
:1026A000F894BEBE0FBEADBEDF91CF911F910F91CA
:1026B000FF90EF90DF90CF90BF90AF900895CF93B1
:1026C000DF93EC0160E773E188810E9478274885F9
:1026D00059856C81FC018081DF91CF910C94251785
:1026E000EF92FF921F93CF93DF93EC018C85182F0D
:1026F0001F7741E050E060E773E188810E9449273D
:102700007C018C819D81AE81BF81892B8A2B8B2B93
:10271000F1F48091BC0082FD10C061E084E10E9470
:10272000C42361E085E10E94C4231092B90088E4CB
:102730008093B80084E08093BC00812F880FF7015C
:102740008083DF91CF911F91FF90EF90089580E3F8
:102750000E94EC370F931F93CF93DF938C0163EDAF
:1027600077E1FC0180810E947827EC010E94DB3335
:10277000F80184819581A681B7818C839D83AE8386
:10278000BF8380859185A285B38588879987AA872D
:10279000BB87892B8A2B8B2B29F4DF91CF911F913B
:1027A0000F91089584859585A685B7858C879D872B
:1027B000AE87BF8780899189A289B389888B998BDD
:1027C000AA8BBB8B84898E8B1F8ACE01DF91CF9120
:1027D0001F910F910C942D348F929F92AF92BF92C4
:1027E000CF92EF920F931F93CF93DF93EC014801A9
:1027F00059011F92EF92BF92AF929F920F937F93D6
:102800006F935F934F931F92CF928AE39EE09F93C3
:102810008F930E9477308DB79EB70E960FB6F894BF
:102820009EBF0FBE8DBFE11009C08C859D85AE8512
:10283000BF8588169906AA06BB0688F48F898F5F24
:102840008F8B9E898917B0F4DF91CF911F910F91E3
:10285000EF90CF90BF90AF909F908F900895888910
:102860009989AA89BB8988159905AA05BB0530F302
:102870001F8AEACF809127018111FACF8CE10E9453
:10288000EC37FC0192899460928B1092260181E0D2
:102890008093460180E008950F931F93CF93DF93B9
:1028A0008C0146E450E06CE474E1FC0180810E94FC
:1028B0004927EC0181E494E19B838A836CE572E310
:1028C000F80184810E9478279D878C87DF91CF91C2
:1028D0001F910F910895FC01448155816681778194
:1028E000208580810C945A29EF92FF920F931F93B9
:1028F000CF93DF937C016EEE74E1DC018C910E943A
:1029000078278C010E94F427EC01F70184819581DE
:10291000A681B7818A839B83AC83BD8380859185A3
:102920009F838E83F89419821882D80151968D91D5
:102930009C915297892BB9F15396ED91FC91549744
:10294000D183C0835496DC93CE93539780E090E07C
:102950007894892B39F4DF91CF911F910F91FF90DB
:10296000EF900895C8010E94DB33D80112968D9133
:102970009C91139781559242F1F08A819B81AC81A1
:10298000BD812CEC31E2F80133832283848395836B
:10299000A683B783C801DF91CF911F910F91FF905C
:1029A000EF900C942D34F801D48BC38BD28BC18B58
:1029B00081E090E0CDCF8A819B81AC81BD81F8011F
:1029C0004481558166817781272F481759076A0707
:1029D0002B0B27FFD6CF8FE10E94EC37CF92DF92EF
:1029E000EF92CF93DF93EC01488559856A857B850B
:1029F0002C858C810E945A296B01E82E45E150E01C
:102A00006EEE74E188810E944927FC01C086D18660
:102A1000E28688899989908B87878C899D89AE8980
:102A2000BF8983879487A587B6878CEC91E29383CF
:102A3000828368E070E0CF014196DF91CF91EF9003
:102A4000DF90CF900C94DA27DF92EF92FF920F93F2
:102A50001F93CF93DF93EC01D88883E08D15B0F1FD
:102A60006CE572E388810E9478277C018AE090E01F
:102A70000E9454308C0161E08C810E947017F80133
:102A800060837183828360E088850E94C423F8019B
:102A900063837483858360E08C850E94C423F8017E
:102AA000668377838087D186F7018581982F96701A
:102AB00081F4F7011183008382608583DF91CF91D8
:102AC0001F910F91FF90EF90DF9008958BE10E948E
:102AD000EC370E9426180F931F93CF93DF93EC01DE
:102AE000F8940E941225088519852A853B85DC010A
:102AF000CB01800F911FA21FB31F8C839D83AE83D8
:102B0000BF83CE010E942D347894DF91CF911F9125
:102B10000F910895CF93DF93EC0144969F938F9389
:102B20008B891F928F938F858F938E858F931F92A2
:102B30006F938BE29EE09F938F930E9477301B8A66
:102B40008E859F8501969F878E878DB79EB70A9643
:102B50000FB6F8949EBF0FBE8DBFDF91CF91089541
:102B6000DF92EF92FF920F931F93CF93DF93CDB736
:102B7000DEB729970FB6F894DEBF0FBECDBF8C012C
:102B8000F62E9E012F5F3F4F89E0F90111928A9541
:102B9000E9F782EF898349E061E0F8018485958552
:102BA0000E942918F801838990E09C012C5E3F4F18
:102BB000E20FF31F3B81232F207F21F1203F11F1F2
:102BC0002FEF2483238322832183F801E80FF91F49
:102BD000248BF80183898B5F838B8E3208F05EC073
:102BE000F801828981FD4FC029960FB6F894DEBFA7
:102BF0000FBECDBFDF91CF911F910F91FF90EF904E
:102C0000DF9008954D81242F207FC9F52F81522F09
:102C1000507F11F0503FA1F65885503989F65985FB
:102C20005F77E52E50E25E1558F2D801A80FB91F64
:102C30005A8154965C938C8181838E818283822F0A
:102C400090E03F71BC01660F771F62957295707FAF
:102C50007627607F7627362B3383880F991F880F5E
:102C6000991F80764F71482B4483F80183898B5FCD
:102C7000838B4EEFD42EDE0C8E32B8F012C0203F84
:102C800009F09ECFC3CFC8010E94DB33F8018289CF
:102C90008B7F828BC8010E946B15A6CF8EEFD82E3A
:102CA000E12C6F2DC8010E948A15FEE1FE1530F45B
:102CB000F801808991890196918B808BFEE1FD1549
:102CC00008F48ECF1092260181E0809346018CCFCC
:102CD000CF92DF92EF92FF926B017C0109C00E94BC
:102CE0001225292F6C157D058E052F0927FF09C098
:102CF0008091BC0087FFF3CFFF90EF90DF90CF90E3
:102D000008958FE20E94EC3724EA2093BC000E94D1
:102D100068168091B90090E0A0E0B0E080319105A4
:102D2000A105B10521F00897A105B10509F40895A1
:102D30008EE20E94EC377F928F929F92AF92BF9269
:102D4000CF92DF92EF92FF920F931F93CF93DF9377
:102D5000782EC62F942EB52E822E0E9412256B013E
:102D60007C0120E8C20E28E3D21E21E0E21EF11C05
:102D7000C701B6010E9484167092BB0084E880935C
:102D8000BC00C701B6010E946816AA24AA94AC0E22
:102D9000CC23B1F0C92DDB2DB12C8FEFA81AB80AC6
:102DA000AC0EBD1E94E8992E89918093BB00909241
:102DB000BC00C701B6010E946816AC16BD06A1F79B
:102DC000C701B6010E948416872D81608093BB00E5
:102DD00084E88093BC00C701B6010E946816DFEF4B
:102DE000D80D882009F15801CD2F84EC982ECC23E2
:102DF00069F09092BC00C701B6010E9468168091EC
:102E0000BB00F50181935F01C15099F7F801ED0F07
:102E1000F11DEF0184E88093BC00C701B6010E9458
:102E200068168091BB00888384E98093BC00DF91A1
:102E3000CF911F910F91FF90EF90DF90CF90BF90B7
:102E4000AF909F908F907F900895BF92CF92DF9226
:102E5000EF92FF920F931F93CF93DF93D82FC62F3C
:102E6000B42E152F0E9412256B017C0120E8C20EA2
:102E700028E3D21E21E0E21EF11CC701B6010E9428
:102E80008416D093BB0084E88093BC00C701B601D0
:102E90000E9468160FEF0C0FCC23A9F0CB2DD12F79
:102EA00010E00F5F1F4F0C0F1D1F84E8B82E899193
:102EB0008093BB00B092BC00C701B6010E946816A7
:102EC000C017D107A1F784E98093BC00DF91CF91AF
:102ED0001F910F91FF90EF90DF90CF90BF900895DA
:102EE0008832A0F567FD32C0E82FE695E695E695B5
:102EF000F0E0EE0FFF1FE458F24FA591B491109748
:102F000029F1877021E030E0A90102C0440F551F6C
:102F10008A95E2F7CA014FB7F89412963C9112973E
:102F2000662381F0382B282F209512963C93129718
:102F300011963C911197232311962C9311974FBF13
:102F4000BD010895282F20953223EFCF8AE20E94F9
:102F5000EC37FB012FB7F8949281411105C08095A1
:102F6000892382832FBF0895892B82832FBF0895E1
:102F7000FC011092260181E080934701818D8160E0
:102F8000818F448155816681778180859185A28575
:102F9000B385840F951FA61FB71F84839583A683CF
:102FA000B78381E00895FF920F931F93CF93DF9330
:102FB000EC01F88483E08F15E0F04AE150E063ED26
:102FC00077E188810E9449278C0188EB97E1F8011D
:102FD000938382836CE572E38C810E947827F801E9
:102FE000958B848BF08EDF91CF911F910F91FF9085
:102FF00008958DE10E94EC37CF92DF92FF920F93FC
:103000001F93CF93DF93EC016CE572E38C810E94F8
:1030100078276C01F8840F2D10E0A8014D5F5F4FF9
:103020006CEF77E188810E944927FC01D182C08240
:10303000F2826C857D85A8010396DF91CF911F9167
:103040000F91FF90DF90CF900C943F398BE10E945D
:10305000EC376F927F928F929F92AF92BF92CF92F6
:10306000DF92EF92FF920F931F93CF93DF934C0168
:10307000E62E142F6901DC0115967C901597872D9B
:10308000867009F451C071FC39C0F40190818181CE
:103090009CBD8DBDF72DF1706F2E70FCC8C0EE2069
:1030A00009F49CC08FEF810F112351F0F60190813C
:1030B0009EBD0DB407FEFDCF9EB591938150B8F72C
:1030C000662091F1072D069506950695402F4095AF
:1030D0004170D40112966D917D918C91DF91CF91C9
:1030E0001F910F91FF90EF90DF90CF90BF90AF9026
:1030F0009F908F907F906F900C94A917ED91FC9109
:10310000418542706681778180850E94A917B72D1D
:10311000B1706B2E70FC17C0D401CD91DC91AA2444
:10312000AA94A10E111126C0DF91CF911F910F918A
:10313000FF90EF90DF90CF90BF90AF909F908F90D7
:103140007F906F900895072D069506950695402F60
:103150004170F4016281738184810E94A917D401B6
:10316000CD91DC91AA24AA94A10E112309F4AECF2B
:1031700066246394B12C8FEFA81AB80AAC0CBD1C5E
:10318000D601FC9008E010E0898580FF35C0EE8113
:10319000FF81888580834F2D40786B817C818D8174
:1031A0000E94A917FF0CEE81FF8188858083110F93
:1031B000E881F98190818A81892391E009F490E086
:1031C000192B015009F7EE2011F0F6011083FFEFE3
:1031D000CF1ADF0AAC14BD0499F672CFF60196013E
:1031E000210F311D2E173F0709F46ACF81918EBD43
:1031F0000DB407FEFDCFF6CF4F2D40786B817C815B
:103200008D810E94A917FF0CEE81FF818885808344
:10321000110FE881F98190818A81892391E009F475
:1032200090E0192BEE81FF8188858083CACF73FAE5
:10323000442740F9F4016281738184810E94A917B7
:10324000662463942CCFCF93DF93EC016CE572E39B
:1032500088810E947827288539854C8160E0DF913C
:10326000CF910C942918FF920F931F93CF93DF9364
:10327000EC0118816CE572E3812F0E9478270C81A4
:10328000F884C9852F2D3C2F402F61E00E9429181A
:10329000CF93FF921F920F931F921F938FE39EE095
:1032A0009F938F930E9477308DB79EB708960FB685
:1032B000F8949EBF0FBE8DBFDF91CF911F910F91EC
:1032C000FF900895CF93DF93EC016A8D662309F494
:1032D00053C0FC0150E031E020E0A38DB48D4C914F
:1032E000958D942309F0532B2F5F330F33962613BC
:1032F000F4CF2C85922F952729F08D8585278095F1
:103300009823D9F4888D5D8787FD03C0815070F1C3
:10331000888F4C815D816E817F8188859985AA85A2
:10332000BB85840F951FA61FB71F8C839D83AE831B
:10333000BF8381E0DF91CF910895982F9095292345
:103340008523822B8C879E859830E0F621E0290F1B
:103350002E87FE01E90FF11D87871092260181E07B
:10336000809348018FEF888F5D87D3CF109226011D
:1033700091E090934801CCCF50E0BBCFAF92BF9289
:10338000DF92EF92FF920F931F93CF93DF93FC0195
:10339000A485B585968547855089E188228933893A
:1033A000F488A588B6887789008D118DD28C8085A8
:1033B00086279C9384FD20C085FD22C086FD24C005
:1033C00087FD26C09C93862F8295807F8087682703
:1033D0009C9364FD2AC065FD25C066FD1CC067FD89
:1033E0001EC09C93DF91CF911F910F91FF90EF90A2
:1033F000DF90BF90AF900895EA01E88285FFDECFAD
:10340000E901F88286FFDCCFE501788387FFDACF18
:10341000E801D882D7CFF501708367FFE2CFE801DA
:10342000D882DFCFE901F882D8CFFA01E082D3CF8A
:103430000F931F93CF93DF938C0164E47AE1DC0157
:103440008C910E947827FC01D80114969C91828D62
:103450009817B8F4292F30E0E901CC0FDD1F2C0FAD
:103460003D1FEF01C20FD31FF801648580850E94C4
:1034700070176B8F7C8F8D8FDF91CF911F910F9184
:10348000089584E20E94EC37CF93FC01C481C930D7
:10349000B8F44C2F50E09A01220F331F420F531FF4
:1034A000455E5F4F64E47AE1FC0180810E94492718
:1034B000FC01C28F22E639E133832283CF91089544
:1034C00085E20E94EC375F926F927F928F929F927B
:1034D000AF92BF92CF92DF92EF92FF920F931F9322
:1034E000CF93DF938C01FC01C080D180E280F38018
:1034F00084809580A680B78066246A94660E6623D1
:1035000001F1EA01712CFFEF6F1A7F0A640E751E3C
:1035100059900E941225DC01CB018C199D09AE093E
:10352000BF0988159905AA05BB0598F3652DC80143
:103530000E94BE190E9412256B017C01C615D70599
:1035400039F7F801C082D182E282F382DF91CF9114
:103550001F910F91FF90EF90DF90CF90BF90AF90B1
:103560009F908F907F906F905F9008950F931F931F
:10357000CF93DF93EC016EEE7AE188810E94782789
:103580008C01FC0161857285838541E00E94A91749
:10359000488559856C81C801DF91CF911F910F91AA
:1035A0000C94631A0F931F93CF93DF93EC016EEE8D
:1035B0007AE188810E9478278C01FC0161857285FF
:1035C000838540E00E94A917488559856C81C80110
:1035D000DF91CF911F910F910C94631ACF92DF92DC
:1035E000EF92FF920F931F93CF93DF93EC014BE188
:1035F00050E06EEE7AE188810E9449278C0160E0FC
:103600008C810E94C423F80161877287838760E000
:1036100088850E94C423F80164877587868760E0E7
:103620008C850E94C423F8016787708B818B60E0D2
:1036300088890E94C423F801628B738B848B60E0BD
:103640008C890E94C423F801658B768B878B60E0A0
:10365000888D0E94C423F801608F718F828FF89447
:103660000E9412256B017C0160E0C8010E94BE1916
:103670000E9412257894DC01CB018C199D09AE09BA
:10368000BF09CC8CDD8CEE8CFF8C8C159D05AE05B6
:10369000BF0548F4C81AD90AEA0AFB0AF801C4822D
:1036A000D582E682F782DF91CF911F910F91FF9033
:1036B000EF90DF90CF9008954F925F926F927F923C
:1036C0008F929F92AF92BF92CF92DF92EF92FF9232
:1036D0000F931F93CF93DF938C01562E3A01FC0179
:1036E00080809180A280B380C480D580E680F780FE
:1036F000EA012196FA014080642D607F0E941C2E11
:103700000E941225DC01CB0188199909AA09BB097D
:103710008C159D05AE05BF0598F3642D6295607FFD
:10372000C8010E941C2E0E9412256B017C01F80129
:1037300080849184A284B384F1E05F1639F15A94B5
:103740005A94852D90E00296680E791E5990652D49
:10375000607FC8010E941C2E0E941225DC01CB0153
:103760008C199D09AE09BF0988159905AA05BB05E5
:1037700098F3652D6295607FC8010E941C2E0E94FF
:1037800012256B017C01C615D70501F7F801C0822F
:10379000D182E282F382DF91CF911F910F91FF904E
:1037A000EF90DF90CF90BF90AF909F908F907F90E1
:1037B0006F905F904F900895CF92DF92EF92FF92BB
:1037C000CF93DF93FC01A085B18582858C9396858C
:1037D00081E089278687C82FC170C688D788E08C8A
:1037E000F18C97859F5FD1899D1708F05FC0892F65
:1037F000869586958695DF01A80FB11D5A962C9166
:1038000030E0892F877002C0359527958A95E2F7B9
:103810002170B701A601C217A9F033C0892F869580
:1038200086958695DF01A80FB11D5A962C9130E040
:10383000892F877002C0359527958A95E2F7217008
:10384000C2131FC04C0D5D1D6E1D7F1D9F5F9D1718
:1038500028F387ED9EE19383828384819581A681FD
:10386000B781480F591F6A1F7B1F448355836683A6
:10387000778381E0DF91CF91FF90EF90DF90CF9041
:103880000895978784819581A681B781480F591F34
:103890006A1F7B1F448355836683778381E0DF91B2
:1038A000CF91FF90EF90DF90CF900895B701A601E0
:1038B000D0CFCF92DF92EF92FF920F931F93CF93CF
:1038C000DF93EC01E885F9858A8580830E941225C3
:1038D0003E8521E023272E872F852F5F2F872130DC
:1038E00009F45CC02530E0F40C811D812E813F81FC
:1038F0004A895B896C897D89DB01CA01800F911F30
:10390000A21FB31F8C839D83AE83BF8381E0DF91B1
:10391000CF911F910F91FF90EF90DF90CF9008957E
:10392000CC80DD80EE80FF80AB01BC014C195D09CD
:103930006E097F098E899F89A88DB98D481B590B07
:103940006A0B7B0BDB01CA010296A11DB11DB7FDFD
:1039500034C0B595A79597958795B595A7959795F3
:1039600087950A891B892C893D89800F911FA21F89
:10397000B31F8E8B9F8BA88FB98F2CED3BE13B83C0
:103980002A834C0D5D1D6E1D7F1D840F951FA61F84
:10399000B71F8C839D83AE83BF83B8CF0C811D81FD
:1039A0002E813F81AB01BC01401B510B620B730B9D
:1039B0004E8B5F8B688F798F9BCFDB01CA01059699
:1039C000A11DB11DC6CFEF92FF920F931F93CF930E
:1039D000DF937C0164E87DE1FC0180810E9478270F
:1039E000EC011E8511FF07C0DF91CF911F910F9150
:1039F000FF90EF900895F701048160857185F4844C
:103A00000B3008F045C0FAE0FF1508F441C0402F24
:103A100050E04A960E943F391F86117312601E873C
:103A2000802F880F880F880F898BFF0CFF0CFF0CED
:103A3000F88A002349F08A8D8F738A3229F489E548
:103A40009CE19B838A830CC08A899B89AC89BD8950
:103A50008E8B9F8BA88FB98F8CED9BE19B838A8384
:103A6000F8940E941225DC01CB018058934FAF4F90
:103A7000BF4F8C839D83AE83BF83CE010E942D34C4
:103A80007894DF91CF911F910F91FF90EF9008955F
:103A900086E20E94EC370F931F93CF93DF938C0144
:103AA00064E47AE1DC018C910E947827EC01D80172
:103AB0001496EC918F898E0F8F8BF8948E85E81772
:103AC000D0F48E1BF0E03F96EC0FFD1FDE011F9639
:103AD0002FEF280F30E0205F3F4F2C0F3D1F9191BB
:103AE0009D93A217B307D9F78E877894DF91CF9172
:103AF0001F910F9108951E868EEF888F7894DF9125
:103B0000CF911F910F9108957F928F929F92AF92C4
:103B1000BF92CF92DF92EF92FF920F931F93CF93BA
:103B2000DF93EC0144E250E064E87DE188810E948B
:103B300049278C0178848C809D80AE80BF80CC84A6
:103B4000DD84EE84FF8461E0711001C060E0882DA7
:103B50000E947017F80163877487858761E08C2D58
:103B60000E94C423F80160877187828788899989B8
:103B7000AA89BB89828B938BA48BB58B711018C0DB
:103B800091E08C149D04AE04BF04C1F080E0892B49
:103B9000F8018687DF91CF911F910F91FF90EF90F1
:103BA000DF90CF90BF90AF909F908F907F900895BF
:103BB00091E18C149D04AE04BF0441F780E2E7CF8D
:103BC0000F931F93CF93DF938C0164E47AE1FC01A0
:103BD00080810E947827EC010E94DB33F801848108
:103BE0009581A681B7818C839D83AE83BF834085F9
:103BF000518562857385488759876A877B87808965
:103C00008D878C871E861F8A8EEF888F8485898F8B
:103C100087FD10C0452B462B472B29F4DF91CF9110
:103C20001F910F910895CE01DF91CF911F910F91B8
:103C30000C942D3483E20E94EC37CF93DF93EC0198
:103C40008E8585FD0DC0688579858A8541E00E9455
:103C5000A9178E85807381608E87DF91CF9108953B
:103C6000E885F9858A852FB7F8949281982B9283FD
:103C70009181892B81832FBF8E85807381608E8790
:103C8000DF91CF910895CF93DF93FC01A385B48595
:103C90005C918785982F977021E030E001C0220F5A
:103CA0009A95EAF7982F969596959695DF01A90F24
:103CB000B11D5A969C915A9745854523E1F0292BD1
:103CC0005A962C938F5F90898917E8F487874481EF
:103CD00055816681778186899789A08DB18D840F02
:103CE000951FA61FB71F84839583A683B78381E0A2
:103CF000DF91CF910895209529235A962C938F5FB9
:103D00009089891718F3EF01CF010E941D1E8E853F
:103D100088608E871092260181E08093490180E0BF
:103D2000DF91CF910895CF93DF93FC01A385B485F4
:103D30009C9185858923E9F08685846086878785BF
:103D400091E0980F9787803408F54481558166810A
:103D5000778186899789A08DB18D840F951FA61FC5
:103D6000B71F84839583A683B78381E0DF91CF91CA
:103D70000895868582FFE3CF178683E49EE19383CF
:103D80008283CF01DF91CF910C94431EEF01108A03
:103D9000CF010E941D1E8E8588608E87109226019D
:103DA00081E08093490180E0DF91CF9108950F93E6
:103DB0001F93CF93FC01C089CC23E9F1868585FD53
:103DC00023C0178683E99EE193838283868997893E
:103DD000A08DB18D880F991FAA1FBB1F880F991F37
:103DE000AA1FBB1F4481558166817781840F951F6F
:103DF000A61FB71F84839583A683B783C1E08C2F4A
:103E0000CF911F910F910895A385B48595852FB704
:103E1000F89484FF21C012968C911297892B90956B
:103E200012968C93129711968C9111979823119654
:103E30009C932FBFC6CF8C010E941D1EF801868562
:103E4000886086871092260181E0809349018C2F3B
:103E5000CF911F910F91089512968C911297909582
:103E60008923DECF1F93CF93DF93EC01162FAC890C
:103E7000BD891097B9F01296ED91FC9113978D9131
:103E80009C9111979D8B8C8B11961C921E92139670
:103E90001C921E921297612FCD010995AC89BD89A4
:103EA000109749F71092260181E080934A01DF9133
:103EB000CF911F910895FC013897968990FF08C013
:103EC000608D678B9A7F9460968BCF010E94321F22
:103ED00080E00895FC0186898460868B109226011B
:103EE00081E080934A014481558166817781808990
:103EF0009189A289B389840F951FA61FB71F848358
:103F00009583A683B78381E00895FC01A085B185E0
:103F10009C9182858923D1F0818D80958170C9F42F
:103F2000838D815031F1838F448155816681778102
:103F300087859089A189B289840F951FA61FB71F15
:103F400084839583A683B78381E00895818D8170F2
:103F500039F388E098E29383828383899489A589E1
:103F6000B68984839583A683B783828D838F81E00E
:103F70000895A789B08D56969C915697892F817088
:103F800090FFE3CF648D57966C9357979A7F946018
:103F900056969C935697CD010E94321F80E008955B
:103FA000FC0180917A0086FF0EC084819581A681F4
:103FB000B7818853984FAF4FBF4F84839583A683B3
:103FC000B78381E00895828D90910901981761F07F
:103FD0009F3F59F7809309018770806480937C002C
:103FE00087ED80937A00E1CF8FEF809309012091D4
:103FF000780030917900858D968D891780F54489F8
:104000005589240F351F8F5F358B248B858F89173A
:1040100060F18689978928173907C8F1808D918DBD
:1040200082179307A0F1138E1092260181E08093EE
:104030004B01408951896289738980859185A28568
:10404000B385840F951FA61FB71F808B918BA28B02
:10405000B38B84839583A683B78381E0089581E041
:10406000358B248B858F8917A0F644815581668115
:10407000778184859585A685B785840F951FA61FB2
:10408000B71F84839583A683B78381E00895838DCA
:104090008F5F838F948D891738F28091270181116A
:1040A000C2CF8AE10E94EC37EF92FF921F93CF9329
:1040B000DF937C01FC0110816BEC70E2812F0E9488
:1040C0007827EC01F8948E8980FF09C0F70164819C
:1040D0006F8B8A7F84608E8BCE010E94321FCE014F
:1040E0000E94DB33CE0108960E94DB331E8A8F8943
:1040F00078941F921F921F921F921F928F931F926C
:104100001F921F921F9389E49EE09F938F930E94BA
:1041100077308DB79EB70C960FB6F8949EBF0FBE42
:104120008DBFDF91CF911F91FF90EF900895CF93B6
:10413000FC01C08161E671E28C2F0E947827FC01AE
:10414000F894818D33894489558966897894A0854E
:10415000B1852C919285922321E009F420E01F92F1
:104160002F936F935F934F933F93869581701F9228
:104170008F931F92CF938EE49EE09F938F930E9424
:1041800077308DB79EB70C960FB6F8949EBF0FBED2
:104190008DBFCF91089549E150E06BEC70E2FC01D6
:1041A00080810E9449272AE63FE1FC013383228374
:1041B0002BE53FE1338722870895EF92FF920F931B
:1041C0001F93CF93DF938C016BEC70E2FC01808135
:1041D0000E947827EC01F8948E8980FF13C07E013D
:1041E000F8E0EF0EF11CC7010E94DB33F801848177
:1041F0009581A681B7818C879D87AE87BF87C701D0
:104200000E942D347894DF91CF911F910F91FF90F0
:10421000EF9008950F931F93CF93DF938C0161E686
:1042200071E2FC0180810E947827EC010E94DB335F
:10423000F80184819581A681B7818C839D83AE83AB
:10424000BF8380859185A285B3858F87988BA98B45
:10425000BA8B84858A8F882361F1F801408951895E
:10426000628973894B875C876D877E8728E038E297
:104270003B832A838B8F84899589A689B789892B6B
:104280008A2B8B2BA1F482E0898F6BEC70E2F80112
:10429000808D0E947827988F8F8BF801848D8C8F6A
:1042A000CE01DF91CF911F910F910C942D3483E0BB
:1042B000EBCF188E1F8A198EDF91CF911F910F912E
:1042C00008950F931F93CF93DF93EC014DE150E0DE
:1042D00061E671E288810E9449278C0168858C81A2
:1042E0000E947017F801608771878287DF91CF91F4
:1042F0001F910F910895CF93DF93EC010E94DB3360
:10430000CE0108960E94DB33EC89FD89309751F08D
:10431000908181811382128211821082E92FF82FFD
:104320003097B1F71D8A1C8A188E1F8A1E8ADF916A
:10433000CF9108950F931F93CF93DF938C016BEC74
:1043400070E2FC0180810E947827EC01F8940E94C1
:104350007B2181E08E8BF80184819581A681B781D4
:104360008C839D83AE83BF8380859185A285B38531
:10437000888B998BAA8BBB8B892B8A2B8B2B19F063
:10438000CE010E942D34F8018485888F7894DF91C6
:10439000CF911F910F9108950F931F93CF93DF93A8
:1043A000FC01A189B2898D919C911197928B818B8F
:1043B00016968D919C911797C085D18522852111E4
:1043C0003FC02FB7F894AC015527598348832FBFBE
:1043D00020914C0130914D0111963C932E93B09356
:1043E0004D01A0934C01A189B289109759F52785F9
:1043F00030898217930741F083859485A585B6851A
:104400000097A105B10531F480E0DF91CF911F91B4
:104410000F9108954481558166817781840F951F9E
:10442000A61FB71F84839583A683B78381E592E295
:104430009383828381E0DF91CF911F910F91089543
:104440008883C6CF12964D915D916D917C911597A1
:10445000278530898217930741F083859485A58548
:10446000B6850097A105B10551F444835583668351
:10447000778381E0DF91CF911F910F91089504819F
:10448000158126813781800F911FA21FB31F2B2F0B
:1044900084179507A607270B27FFE7CF8FE10E9418
:1044A000EC3780E20E94EC372F923F924F925F925E
:1044B0006F927F928F929F92AF92BF92CF92DF9234
:1044C000EF92FF920F931F93CF93DF9300D000D012
:1044D0001F92CDB7DEB77C012DB73EB73D832C834D
:1044E00060E773E1DC018C910E9478279B838A83CB
:1044F000F701F481F983D70118966D907C90199794
:104500001C968D919D910D90BC91A02D80FD6BC04E
:104510001C012D015694479437942794F701E088A5
:10452000F188C22CD12CF9810F2F10E0C8018C0D1D
:104530009D1D2DB73EB7281B390B0FB6F8943EBF13
:104540000FBE2DBF8DB79EB701965C01A801B301C8
:104550000E943F394501800E911E8401222DA30146
:104560006981AA81BB818C910E949B16C114D104E0
:1045700099F0CE0CDF1CF4019601D7018D917D01DD
:104580008095908189238083D9019D919D01892BFC
:104590008193CE14DF0489F76981620DA501EA8158
:1045A000FB8180810E942517EC81FD810FB6F89474
:1045B000FEBF0FBEEDBF0F900F900F900F900F90AA
:1045C000DF91CF911F910F91FF90EF90DF90CF90EF
:1045D000BF90AF909F908F907F906F905F904F9023
:1045E0003F902F9008958EE10E94EC37B0990FC054
:1045F00080914F0190915001019610920501109207
:104600000401909307018093060181E0089581E001
:1046100086BB80914F01909150010196909350017B
:1046200080934F0120E030E830930501209304018E
:10463000909307018093060181E00895CF93DF9363
:10464000FC0184819581A681B78144895589668959
:104650007789C58DD68D3881C42FC170278D2323CE
:1046600031E009F430E0C31761F04F5F5F4F6F4FE7
:104670007F4F448B558B668B778B808F918FA28F6A
:10468000B38F4089518962897389272F4817590749
:104690006A072B0B27FF18C0248D2160248F4485C7
:1046A000558566857785840F951FA61FB71F808B5C
:1046B000918BA28BB38B1092260181E080934E01E7
:1046C00084819581A681B7814085518562857385F6
:1046D000840F951FA61FB71F84839583A683B78376
:1046E00081E0DF91CF9108950F931F93CF93DF93D4
:1046F0008C0166EA73E2FC0180810E947827EC015C
:104700000E94DB33F80184819581A681B7818C8377
:104710009D83AE83BF8340855185628573854887BD
:1047200059876A877B8744855585668577854C8759
:104730005D876E877F87888B998BAA8BBB8BCE0119
:10474000DF91CF911F910F910C942D340F931F93F4
:10475000CF93DF93EC0140E250E066EA73E2888198
:104760000E9449278C0168858C810E947017F8018E
:10477000658F768F878F8EE193E293838283DF91BB
:10478000CF911F910F910895883278F5E82FE69523
:10479000E695E695F0E0EE0FFF1FE458F24FA59185
:1047A000B491109711F1877021E030E0A90102C0A7
:1047B000440F551F8A95E2F7CA013FB7F894129645
:1047C0002C91129761110FC04095242312962C93BF
:1047D000129711962C911197282B11962C931197C3
:1047E0003FBFBD010895242BF1CF8BE20E94EC372F
:1047F0001F920F920FB60F921124EF92FF920F9318
:104800001F932F933F934F935F936F937F938F9358
:104810009F93AF93BF93CF93DF93EF93FF930DC01D
:104820007A0180918400909185008E199F0997FDEF
:104830007CC07894B29998C0F894C0912201D0912C
:104840002301EA81FB81309709F0ABC0EA8DFB8D33
:104850002C8D20838E859F85019709F4BFC09F878B
:104860008E8788859985AA85BB854C815D816E81FF
:104870007F81480F591F6A1F7B1F4C835D836E83A6
:104880007F8320832CA525FF0EC00C851D85012E5E
:10489000000C220B330B800F911FA21FB31F8887C0
:1048A0009987AA87BB87E881F981048115812681D0
:1048B0003781872F401751076207830B87FDB0CFE1
:1048C0007801F0932301E0932201A0912401B0919B
:1048D000250114960D911D912D913C911797872FCD
:1048E000401751076207830B87FFFD01DF0101902D
:1048F000F081E02D0481158126813781872F4017B3
:1049000051076207830B87FFF1CFF983E883CD93CB
:10491000DC93D0932501C093240180918400909171
:1049200085008E199F0997FF84CF863A9F4F0CF020
:1049300068C0F0928900E0928800FF91EF91DF91CA
:10494000CF91BF91AF919F918F917F916F915F9127
:104950004F913F912F911F910F91FF90EF900F90EA
:104960000FBE0F901F901895F8948091840090913D
:1049700085009701281B390B2038314CDCF1209140
:10498000260127FF43C09C01205C304E30938B00F2
:1049900020938A0024E026BB9093890080938800AE
:1049A00040CFCE0109954C815D816E817F8181115F
:1049B0007ACFE881F981E480F580F0932301E093D8
:1049C00022018091240190912501C817D90709F08F
:1049D00028CFF0932501E093240123CFCE010E943C
:1049E000952BEA8DFB8D9C8D90834C815D816E8132
:1049F0007F81DDCF209127012111C1CF89E20E9463
:104A0000EC377894B299B0CFF8940BCF9C0128542E
:104A1000344F30938B0020938A0024E026BB7C0126
:104A2000F39487CF2FB7F89460918400709185003C
:104A300080914F0190915001B09902C02FBF08950D
:104A40002FBF7F3FE1F30196089578940E940536C9
:104A50002FEF260F6623C1F0FC018FEF9FEF3191FE
:104A60008327082E8295807F8025092E982F829596
:104A70008F700826869598278927880F880F880FBA
:104A80008025215060F708958FEF9FEF08950F93D1
:104A90001F93FC01A489B58986898C9393A181E039
:104AA000892783A3448155816681778180FF12C065
:104AB0000085118522853385400F511F621F731FAA
:104AC00082FD12C0448355836683778381E01F9102
:104AD0000F9108950485158526853785400F511F50
:104AE000621F731F82FFEECF0089118922893389EB
:104AF000872F401751076207830B87FDE3CF8BEAAF
:104B000095E293838283B901A80144835583668328
:104B1000778381E01F910F9108950895FC018081B2
:104B2000A481B58140855185628573859FB7F894CE
:104B3000813061F0823019F04C939FBF08954D93FE
:104B40005D936D937C9313979FBF089511965C932B
:104B50004E939FBF08958F929F92AF92BF92CF9234
:104B6000DF92EF92FF921F93CF93DF93EC01EF8CD4
:104B7000F8A0E114F10409F4F0C0F70180819181FB
:104B800098A38F8F86809780A084B18411E08114D0
:104B90009104A104B10409F4A1C06C897D898E89B6
:104BA000412F0E94A91780914C0190914D01F7016E
:104BB00091838083F0924D01E0924C018114910425
:104BC000A104B104E9F08B8D9C8DAD8DBE8D88164E
:104BD0009906AA06BB06A0F44F89588D698D7A8D77
:104BE000411551056105710509F45BC08C819D81FA
:104BF000AE81BF81480F591F6A1F7B1F166022C0FC
:104C00008BA131E081149104A104B10409F068C0C2
:104C100084FB992790F921E09227391709F443C0C2
:104C20004F89588D698D7A8D411551056105710542
:104C3000D1F18C819D81AE81BF81480F591F6A1FC0
:104C40007B1F1460EF8DF8A1309709F077C02BA17E
:104C5000488B598B6A8B7B8B2071212B2BA311FFE7
:104C60005FC0880D991DAA1DBB1D12FD52C027E40F
:104C700035E23B832A838C839D83AE83BF83888602
:104C80009986AA86BB868B8D9C8DAD8DBE8D88192D
:104C90009909AA09BB098C879D87AE87BF8781E0E8
:104CA00011C012608BA1EF8DF8A13097D9F4188A4A
:104CB000198A1A8A1B8A8071812B8BA3812F82709B
:104CC00011FD34C0DF91CF911F91FF90EF90DF90E5
:104CD000CF90BF90AF909F908F90089510E05DCFE0
:104CE00030E096CF4281538164817581488B598B26
:104CF0006A8B7B8B8071912F9460892B8BA311FF22
:104D00000FC08C819D81AE81BF81880D991DAA1D28
:104D1000BB1D2B2F84179507A607270B27FDA7CFB1
:104D20004C835D836E837F8381E0CCCF40E050E095
:104D3000BA018C819D81AE81BF8193CFC280D38027
:104D4000E480F580872F4C155D056E058F0987FD82
:104D500007C08BA1B701A601C9CF85E10E94EC373E
:104D600083E10E94EC37FC0185818F9384818F93CE
:104D700080811F928F938DE59EE09F938F930E9479
:104D800077300F900F900F900F900F900F90089525
:104D9000DC012C911496ED91FC9115973FB7F89496
:104DA0002130E9F02230B1F0808190E0A0E0B0E065
:104DB0003FBFBF93AF939F938F9388E59EE09F93F0
:104DC0008F930E9477300F900F900F900F900F905D
:104DD0000F90089580819181A281B381E9CF808174
:104DE0009181A0E0B0E0E4CFCF92DF92EF92FF920A
:104DF000FC0140815181628173812481E8E7FDE0FB
:104E000085919591A591B491481759076A077B0739
:104E100070F56A017B01C20ED11CE11CF11C8C15DE
:104E20009D05AE05BF0500F5841B90E09A01215D4C
:104E30003C4F3F932F939F938F937F936F935F93F9
:104E40004F9386E79EE09F938F930E9477308DB7B4
:104E50009EB70A960FB6F8949EBF0FBE8DBFFF9007
:104E6000EF90DF90CF900895822F90E0DFCF80E029
:104E700090E0DCCF80912701882329F0823011F067
:104E800010922701089582E00E94EC378EE00E9484
:104E9000EC37CF93DF9390913701891730F5C82F06
:104EA000D0E0CC0FDD1FCC0FDD1FE0913801F09179
:104EB0003901EC0FFD1F80819181892BB1F4809124
:104EC0003F0190914001892B81F471836083CA0175
:104ED0000E9454302091380130913901C20FD31F04
:104EE0009B838A83DF91CF9108958BE00E94EC37FA
:104EF00090913701891788F4E0913801F0913901D8
:104F000094E0899FE00DF11D112480819181861725
:104F1000970719F48281938108958CE00E94EC3701
:104F2000CF92DF92EF92FF92CF93DF93C0913F0138
:104F3000D09140012097B9F121976E01E12CF12C1D
:104F4000A0913E01B0E02097D9F020E030E040E0B1
:104F500050E0BA0180913C0190913D01FC01E20FCB
:104F6000F31F4F5F5F4F6F4F7F4F2A0F3B1F820F23
:104F7000931F918380834C155D056E057F0550F36B
:104F800080913C0190913D01CA9FF001CB9FF00DB3
:104F9000DA9FF00D1124E80FF91F1182108290930F
:104FA0004D0180934C01DF91CF91FF90EF90DF9006
:104FB000CF900895FC0113821282118210826F3FFC
:104FC000710509F07CF480913F0190914001892B9B
:104FD00049F480913E0190E08617970714F460939E
:104FE0003E0108950E9446272FB7F89480914C0106
:104FF00090914D01009749F0FC01408151815093FF
:105000004D0140934C012FBF08958FE00E94EC3773
:105010000F931F93FC01A085B1859C91048115819C
:10502000268137814385548565857685400F511FDC
:10503000621F731F8285892361F0818D8095817045
:1050400059F0448355836683778381E01F910F91E4
:105050000895818D8170A9F7438B548B658B768B76
:1050600085E89FE193838283CF011F910F910C9478
:10507000851FCF93DF93EC016FE37BE288810E9471
:105080007827FC018C819D81AE81BF81892B8A2B81
:105090008B2B51F420E0F89494A59D7F922B94A73C
:1050A0007894DF91CF91089522E0F5CF0F931F936D
:1050B000CF93DF938C01EC01A897CE010E94DB33E4
:1050C0001C821D821E821F821A8A1B8A1C8A1D8ACC
:1050D00088A199A1AAA1BBA12CA54E855F8568894D
:1050E000798924FD04C07695679557954795841B6B
:1050F000950BA60BB70BB7FD40C0B095A09590954A
:1051000081959F4FAF4FBF4F88A399A3AAA3BBA37D
:105110001E861F86188A198A247128602CA76D8D17
:105120007E8D8F8D40E00E94A9174CA544706A8D3A
:105130007B8D8C8D0E94A917D8011497ED91FC915D
:1051400011973097A9F040914C0190914D0101C009
:10515000F9012081318140839183F0934D01E093E7
:105160004C014E2F9F2F2115310591F71D921C9256
:10517000DF91CF911F910F910895B095A0959095D3
:1051800081959F4FAF4FBF4FB8CF0F931F93CF93D2
:10519000DF938C016FE37BE2FC0180810E94782722
:1051A000EC016BEC70E2F80184810E947827BE016B
:1051B000685D7F4F4FB7F8942AA53BA5232B89F450
:1051C00026E538E23BA72AA7FC012489358939A7BF
:1051D00028A7758B648B4FBFDF91CF911F910F91E3
:1051E000089589E10E94EC37CF93DF93EC016FE3E0
:1051F0007BE288810E947827FC018C819D81AE81B1
:10520000BF81F8944685578560897189452B462B67
:10521000472B79F484839583A683B783828B938B02
:10522000A48BB58B84A5877F84A77894DF91CF91D9
:10523000089586E10E94EC37CF93FC01C0816FE3B3
:105240007BE28C2F0E947827FC01F89480A191A129
:10525000A2A1B3A124A5468557856089718924FD43
:1052600004C07695679557954795841B950BA60BBB
:10527000B70BB7FF07C0B095A095909581959F4F4C
:10528000AF4FBF4F7894B054BF93AF939F938F931A
:105290001F92CF9383E59EE09F938F930E94773078
:1052A0008DB79EB708960FB6F8949EBF0FBE8DBF00
:1052B000CF910895CF92DF92EF92FF921F93CF93F9
:1052C000DF936A017B0166E87DE0FB01949198170A
:1052D00049F0675F7F4FFDE06C3B7F07B1F783E3E9
:1052E0000E94EC37FB013896949191FF19C030EA87
:1052F000C3163FE5D306E104F10408F082C0A8ED2F
:10530000CA16A7E2DA06E104F10408F08BC0B7EF91
:10531000CB16B8E0DB06E104F10488F012E010C01F
:10532000F8EBCF16F7E4DF06E104F10408F058C00B
:1053300037EFC31638E0D306E104F10478F711E043
:10534000FB013396A591B491FB013596C591D4919B
:10535000FB0137963491E82FE695E695E695F0E067
:10536000EE0FFF1FE458F24F459154918770E1E032
:10537000F0E07F0101C0EE0C8A95EAF76F5F7F4F86
:10538000FB01C590D490892F8170A038B10509F434
:105390005CC0EFB7F8949881977011F0191352C060
:1053A000188381114AC09FB7F894622F70E0E6011C
:1053B000798368839FBF9C913160392B3C93DA01DC
:1053C00011969C911197E92A1196EC92EFBFB601C4
:1053D000DF91CF911F91FF90EF90DF90CF900895D4
:1053E000A0ECCA16AEE3DA06A1E0EA06F104D0F0BA
:1053F000C114BBEFDB06B4E0EB06F10488F414E063
:105400009FCFC0E8CC16CEE7DC06C1E0EC06F10485
:1054100058F4D0E4CD16DFEBDD06E104F10478F3B7
:1054200015E08ECF13E08CCFC114EBEFDE06E4E085
:10543000EE06F10428F416E083CFE6012883BBCF03
:1054400017E07ECF81E30E94EC3782E30E94EC37C5
:105450004F925F926F927F92BF92CF92DF92EF92C4
:10546000FF920F931F93CF93DF93FC01B0806DEFFA
:105470007AE28B2D0E947827EC014D805E806F8050
:105480007884C984DA84EB84FC840E941225DC01D0
:10549000CB0184199509A609B7098C159D05AE05A0
:1054A000BF0568F40E941225DC01CB01841995091F
:1054B000A609B7098C159D05AE05BF0598F3CD84E7
:1054C000DE84688179818A81A0918400B091850011
:1054D0000B811C819E01215F3F4F7901C20ED31EBB
:1054E000CE14DF0409F457C0F70191917F0128E041
:1054F00013C0F8944091840050918500FB01808393
:1055000080837894FA01EA1BFB0BE017F107D8F4CB
:10551000990FDA01215021F397FFEBCFF8944091D6
:10552000840050918500FB0180837894FA01EA1B86
:10553000FB0BE017F10738F4990FF894FB01808317
:105540007894DA01E7CF40E00E94A9170E94122563
:105550006D837E838F83988780E01F928F931F9245
:10556000BF9283E09EE09F938F930E9477300F90CD
:105570000F900F900F900F900F90DF91CF911F9190
:105580000F91FF90EF90DF90CF90BF907F906F9042
:105590005F904F9008950E9412256D837E838F83C4
:1055A000988781E0DACF0F931F93CF93DF93EC01BD
:1055B0006DEF7AE288810E9478270C811D812E810F
:1055C0003F8148856C857D8517FD14C050E0DA0168
:1055D000A00FB11FEC01ED85FE85EA17FB0750F027
:1055E000015F1F4F800F911FDF91CF911F910F918E
:1055F0000C943F3987E20E94EC376F927F928F9232
:10560000CF92DF92EF92FF92CF93DF93EC0160E0B5
:105610008C810E94C4233B01882EC884D984EA84EB
:10562000FB84D7FC24C0A601415F5F4F6DEF7AE297
:1056300088810E944927FC01608271828282D6861D
:10564000C5868C859D859483838388899989AA8959
:10565000BB8981879287A387B487DF91CF91FF9021
:10566000EF90DF90CF908F907F906F90089588E2B9
:105670000E94EC37FC01648180810C94C4230F9359
:105680001F93CF93DF938C014DE250E06FE37BE2F9
:10569000FC0180810E944927EC01F80184851816DD
:1056A0000CF041C064E06CA7F80184810E94C4231F
:1056B0006A8F7B8F8C8F60E0F80180850E94C42305
:1056C0006D8F7E8F8F8F80E090E0A0E0B0EC88A39C
:1056D00099A3AAA3BBA3F80180899189A289B38960
:1056E0008E8B9F8BA88FB98F6BE070E0CE01849674
:1056F0000E94DA278E899F89A88DB98D8997A10587
:10570000B10548F082ED9CE29B838A83DF91CF91C3
:105710001F910F9108958CA580618CA7DF91CF9187
:105720001F910F91089560E0BECFCF92DF92EF926C
:10573000FF92CF93DF93FC01A4A1B5A1109761F470
:1057400016861786108A118A80E0DF91CF91FF902C
:10575000EF90DF90CF9008958D919C91119795A334
:1057600084A316968D919C9117979587848712969E
:10577000CD90DD90ED90FC901597AC01092E000CBA
:10578000660B770B4C0D5D1D6E1D7F1D408751878D
:105790006287738724A524FD43C0428953896489A5
:1057A0007589C40ED51EE61EF71EC28AD38AE48A06
:1057B000F58AC482D582E682F78218968D919C91F3
:1057C0001997AC0160E070E0440F551F661F771F0A
:1057D00046875787608B718B1A962C911A9720FDFC
:1057E0003FC040A151A162A173A1480F591F611D83
:1057F000711D40A351A362A373A380914C019091AA
:105800004D0111969C938E93B0934D01A0934C0142
:1058100081E0DF91CF91FF90EF90DF90CF900895DE
:105820004481558166817781C40ED51EE61EF71E20
:10583000C482D582E682F782892B31F1206224A7C7
:1058400018968D919C911997AC0160E070E04687A5
:105850005787608B718B1A962C911A9720FFC1CFB6
:10586000AC0160E070E0C0A0D1A0E2A0F3A04C19B0
:105870005D096E097F0940A351A362A373A3C58D7F
:10588000D68D878D8883B9CF2F7DD9CF0F931F9366
:10589000CF93DF938C016FE37BE2DC018C910E945C
:1058A0007827EC010E94F427FC01D80114964D9151
:1058B0005D916D917C9117974283538364837583C7
:1058C00018968D919C91199791878087892B09F45F
:1058D00066C0D8011C968D919C911D9797838683F5
:1058E0001286F8948CA5282F217081FB992790F9B6
:1058F000291729F091E089279285916092874E853A
:105900005F8568897989452B462B472B59F583FD9F
:1059100019C08CA7118210828CA19DA1892BA9F19D
:10592000AEA1BFA1ED93FC93FFA3EEA3CE010E9415
:10593000952BCE010E942D347894DF91CF911F9149
:105940000F91089580914C0190914D019183808336
:10595000F0934D01E0934C017894DF91CF911F912A
:105960000F9108958CA7118210828CA19DA1892B83
:1059700089F0AEA1BFA1ED93FC93FFA3EEA37894B1
:10598000DF91CF911F910F910895FFA3EEA3FDA387
:10599000ECA3CCCFFFA3EEA3FDA3ECA3CDCF87E177
:1059A0000E94EC37CF92DF92EF92FF920F931F93FA
:1059B000CF93DF93EC01EA8DFB8D8C8D80830E9469
:1059C00012250E891F89288D398D6B017C01C00E2F
:1059D000D11EE21EF31E8E859F85A889B989019785
:1059E000A109B1098E879F87A88BB98B80FF0EC054
:1059F000CC82DD82EE82FF8281E0DF91CF911F9128
:105A00000F91FF90EF90DF90CF900895892B8A2B14
:105A10008B2B59F1488559856A857B858A899B89B5
:105A2000AC89BD89840F951FA61FB71F8A8B9B8BDE
:105A3000AC8BBD8B0C851D85012E000C220B330B0E
:105A4000400F511F621F731F488759876A877B87E2
:105A50002B2F8C159D05AE052F0927FDC9CF8C83F3
:105A60009D83AE83BF8381E0C8CFCE010E94952B7A
:105A7000811102C080E0C1CF4C815D816E817F8148
:105A8000972F4C155D056E059F0997FFB6CF4C19F2
:105A90005D096E097F094038514C6F4F7F4F0CF004
:105AA000A7CF88E10E94EC370F931F93CF93DF932A
:105AB0008C0144E450E064E57DE2FC0180810E94B9
:105AC0004927EC018BEA94E39B838A8360E773E1C7
:105AD000F80184810E9478279D878C87DF91CF9180
